{
  "_format": "hh-sol-artifact-1",
  "contractName": "SimulateFlash",
  "sourceName": "contracts/SimulateFlash.sol",
  "abi": [
    {
      "inputs": [
        {
          "internalType": "address",
          "name": "_flashLoanContract",
          "type": "address"
        }
      ],
      "stateMutability": "nonpayable",
      "type": "constructor"
    },
    {
      "inputs": [
        {
          "internalType": "contract IERC20[]",
          "name": "_tokensBorrow",
          "type": "address[]"
        },
        {
          "internalType": "uint256[]",
          "name": "_amountsBorrow",
          "type": "uint256[]"
        },
        {
          "internalType": "address[]",
          "name": "_swapRoute",
          "type": "address[]"
        },
        {
          "internalType": "uint8[]",
          "name": "_exchRoute",
          "type": "uint8[]"
        },
        {
          "internalType": "uint24",
          "name": "_v3_fee",
          "type": "uint24"
        }
      ],
      "name": "simulateFlashLoan",
      "outputs": [
        {
          "internalType": "uint256",
          "name": "gasUsed",
          "type": "uint256"
        },
        {
          "internalType": "uint256",
          "name": "tokenProfit",
          "type": "uint256"
        }
      ],
      "stateMutability": "nonpayable",
      "type": "function"
    }
  ],
  "bytecode": "0x608060405234801561001057600080fd5b50604051610dcb380380610dcb833981810160405281019061003291906100db565b806000806101000a81548173ffffffffffffffffffffffffffffffffffffffff021916908373ffffffffffffffffffffffffffffffffffffffff16021790555050610108565b600080fd5b600073ffffffffffffffffffffffffffffffffffffffff82169050919050565b60006100a88261007d565b9050919050565b6100b88161009d565b81146100c357600080fd5b50565b6000815190506100d5816100af565b92915050565b6000602082840312156100f1576100f0610078565b5b60006100ff848285016100c6565b91505092915050565b610cb4806101176000396000f3fe608060405234801561001057600080fd5b506004361061002b5760003560e01c80633d49a70d14610030575b600080fd5b61004a600480360381019061004591906106a8565b610061565b6040516100589291906107a2565b60405180910390f35b60008060005a905060008054906101000a900473ffffffffffffffffffffffffffffffffffffffff1673ffffffffffffffffffffffffffffffffffffffff1663db107e2b89898989896040518663ffffffff1660e01b81526004016100ca959493929190610b11565b600060405180830381600087803b1580156100e457600080fd5b505af11580156100f8573d6000803e3d6000fd5b505050505a816101089190610baf565b92508760008151811061011e5761011d610be3565b5b602002602001015173ffffffffffffffffffffffffffffffffffffffff166370a08231306040518263ffffffff1660e01b815260040161015e9190610c21565b602060405180830381865afa15801561017b573d6000803e3d6000fd5b505050506040513d601f19601f8201168201806040525081019061019f9190610c51565b9150509550959350505050565b6000604051905090565b600080fd5b600080fd5b600080fd5b6000601f19601f8301169050919050565b7f4e487b7100000000000000000000000000000000000000000000000000000000600052604160045260246000fd5b61020e826101c5565b810181811067ffffffffffffffff8211171561022d5761022c6101d6565b5b80604052505050565b60006102406101ac565b905061024c8282610205565b919050565b600067ffffffffffffffff82111561026c5761026b6101d6565b5b602082029050602081019050919050565b600080fd5b600073ffffffffffffffffffffffffffffffffffffffff82169050919050565b60006102ad82610282565b9050919050565b60006102bf826102a2565b9050919050565b6102cf816102b4565b81146102da57600080fd5b50565b6000813590506102ec816102c6565b92915050565b600061030561030084610251565b610236565b905080838252602082019050602084028301858111156103285761032761027d565b5b835b81811015610351578061033d88826102dd565b84526020840193505060208101905061032a565b5050509392505050565b600082601f8301126103705761036f6101c0565b5b81356103808482602086016102f2565b91505092915050565b600067ffffffffffffffff8211156103a4576103a36101d6565b5b602082029050602081019050919050565b6000819050919050565b6103c8816103b5565b81146103d357600080fd5b50565b6000813590506103e5816103bf565b92915050565b60006103fe6103f984610389565b610236565b905080838252602082019050602084028301858111156104215761042061027d565b5b835b8181101561044a578061043688826103d6565b845260208401935050602081019050610423565b5050509392505050565b600082601f830112610469576104686101c0565b5b81356104798482602086016103eb565b91505092915050565b600067ffffffffffffffff82111561049d5761049c6101d6565b5b602082029050602081019050919050565b6104b7816102a2565b81146104c257600080fd5b50565b6000813590506104d4816104ae565b92915050565b60006104ed6104e884610482565b610236565b905080838252602082019050602084028301858111156105105761050f61027d565b5b835b81811015610539578061052588826104c5565b845260208401935050602081019050610512565b5050509392505050565b600082601f830112610558576105576101c0565b5b81356105688482602086016104da565b91505092915050565b600067ffffffffffffffff82111561058c5761058b6101d6565b5b602082029050602081019050919050565b600060ff82169050919050565b6105b38161059d565b81146105be57600080fd5b50565b6000813590506105d0816105aa565b92915050565b60006105e96105e484610571565b610236565b9050808382526020820190506020840283018581111561060c5761060b61027d565b5b835b81811015610635578061062188826105c1565b84526020840193505060208101905061060e565b5050509392505050565b600082601f830112610654576106536101c0565b5b81356106648482602086016105d6565b91505092915050565b600062ffffff82169050919050565b6106858161066d565b811461069057600080fd5b50565b6000813590506106a28161067c565b92915050565b600080600080600060a086880312156106c4576106c36101b6565b5b600086013567ffffffffffffffff8111156106e2576106e16101bb565b5b6106ee8882890161035b565b955050602086013567ffffffffffffffff81111561070f5761070e6101bb565b5b61071b88828901610454565b945050604086013567ffffffffffffffff81111561073c5761073b6101bb565b5b61074888828901610543565b935050606086013567ffffffffffffffff811115610769576107686101bb565b5b6107758882890161063f565b925050608061078688828901610693565b9150509295509295909350565b61079c816103b5565b82525050565b60006040820190506107b76000830185610793565b6107c46020830184610793565b9392505050565b600081519050919050565b600082825260208201905092915050565b6000819050602082019050919050565b6000819050919050565b600061081c61081761081284610282565b6107f7565b610282565b9050919050565b600061082e82610801565b9050919050565b600061084082610823565b9050919050565b61085081610835565b82525050565b60006108628383610847565b60208301905092915050565b6000602082019050919050565b6000610886826107cb565b61089081856107d6565b935061089b836107e7565b8060005b838110156108cc5781516108b38882610856565b97506108be8361086e565b92505060018101905061089f565b5085935050505092915050565b600081519050919050565b600082825260208201905092915050565b6000819050602082019050919050565b61090e816103b5565b82525050565b60006109208383610905565b60208301905092915050565b6000602082019050919050565b6000610944826108d9565b61094e81856108e4565b9350610959836108f5565b8060005b8381101561098a5781516109718882610914565b975061097c8361092c565b92505060018101905061095d565b5085935050505092915050565b600081519050919050565b6000819050602082019050919050565b6109bb816102a2565b82525050565b60006109cd83836109b2565b60208301905092915050565b6000602082019050919050565b60006109f182610997565b6109fb81856107d6565b9350610a06836109a2565b8060005b83811015610a37578151610a1e88826109c1565b9750610a29836109d9565b925050600181019050610a0a565b5085935050505092915050565b600081519050919050565b600082825260208201905092915050565b6000819050602082019050919050565b610a798161059d565b82525050565b6000610a8b8383610a70565b60208301905092915050565b6000602082019050919050565b6000610aaf82610a44565b610ab98185610a4f565b9350610ac483610a60565b8060005b83811015610af5578151610adc8882610a7f565b9750610ae783610a97565b925050600181019050610ac8565b5085935050505092915050565b610b0b8161066d565b82525050565b600060a0820190508181036000830152610b2b818861087b565b90508181036020830152610b3f8187610939565b90508181036040830152610b5381866109e6565b90508181036060830152610b678185610aa4565b9050610b766080830184610b02565b9695505050505050565b7f4e487b7100000000000000000000000000000000000000000000000000000000600052601160045260246000fd5b6000610bba826103b5565b9150610bc5836103b5565b925082821015610bd857610bd7610b80565b5b828203905092915050565b7f4e487b7100000000000000000000000000000000000000000000000000000000600052603260045260246000fd5b610c1b816102a2565b82525050565b6000602082019050610c366000830184610c12565b92915050565b600081519050610c4b816103bf565b92915050565b600060208284031215610c6757610c666101b6565b5b6000610c7584828501610c3c565b9150509291505056fea2646970667358221220ddef365e1d84f342db8af476a817495fd93ac9bc7472e6d70ec0be49cd5b599c64736f6c634300080d0033",
  "linkReferences": {},
  "deployedLinkReferences": {}
}